:03000000020EA845
:0C0EA800787FE4F6D8FD75813A020EEF69
:0C11250000403F065B4F666D7D077F6F4A
:0F11150001110002270000022D0028022A000A03
:0A106400F583E493F5807F037E001E
:10106E00D3EF9400EE6480948040147D6F7C00ED8D
:0F107E001D70011CED4C70F7EF1F70E41E80E138
:01108D002240
:0411450075330122DB
:0B113100EF1FAC0670011E4C70F62290
:1010B800E4F535D2B27F04FE121131C2B2C28C7F80
:1010C800647E00121131D28CD2B27F287E000211C8
:0110D80031E6
:1010D900E4FBC28C7D08C2B2EBC313FBD2B230B2BF
:0F10E900034303807F0A7E00121131DDE9AF035C
:0110F80022D5
:0210F900AD0741
:1010FB00C28C7B08C2B2ED1392B27F0A7E00121132
:09110B0031D2B2EDC313FDDBEBA0
:0111140022B8
:100F34001210B87FCC1210F97F441210F91210B8B5
:100F44007FCC1210F97FBE1210F91210D9AA071221
:100F540010D9750F008F10E510751000F50FAF0252
:100F6400EF4210D28CC3E51094FFE50F940F5005A7
:100F7400E4F50C8014E510F4FFE50FF4FEEF240112
:100F8400F510E43EF50F750C01AC0FAD10E4120939
:100F94000BE4FBFA7920783F1208001209448E0F03
:0C0FA4008F10850F21851022AE21AF2296
:010FB000221E
:100C7900E533B40105850C34800BC3EE64809480A0
:100C89004009E4F534AA06AB07800A753401C3E4C8
:100C99009FFBE49EFA7C037DE8AF03AE02120A2CA7
:100CA9008E358F367C037DE8AF03AE02120A2C7EA7
:100CB900007F64CFCDCFCECCCE120A2C8E378F38A1
:100CC9007C007D64AF03AE02120A2C7E007F0ACF3E
:100CD900CDCFCECCCE120A2C8E398F3A7C007D0A2C
:100CE900AF03AE02120A2C53A0F7AE04AF05742766
:100CF9002FF58274113E12106443A00853A0FB74AF
:100D090027253AF58274113539F583E493F5804343
:100D1900808012106A43A00453A0FD74272538F57A
:100D2900827411353712106443A00253A0FEE534D2
:100D390090112593F5807F047E0012106E43A00167
:010D49002287
:100FB100AB07AA06E533B4011653A0EF7580067F8F
:100FC100057E0012106E43A010AF03AE028042E511
:100FD10033B4021D53A0EF75805B7F057E001210B4
:100FE1006E43A010AE2DAF2E7C007D0A1209C58084
:100FF10020E533B4031E53A0EF75804F7F057E00BB
:1010010012106E43A010AE2AAF2B7C007D0A12098C
:05101100C5120C79225C
:100D4A00753510E4F5347FFEA834EF08800123D806
:100D5A00FDF59085902F532FF0E52F64F070030274
:100D6A000DF97F147E0012106E85902F532FF0E537
:100D7A002F64F0607A85902FE52F2445605424FE75
:100D8A00602D24E2603D24FE601524F2603024FECA
:100D9A00600814704A75330180457533028040E556
:100DAA00336402703A052EE52E7034052D8030E545
:100DBA0033B4022BE52E152E7025152D802175339F
:100DCA0003801CE533B40317052BE52B7011052AA4
:100DDA00800DE533B40308E52B152B7002152AE5BF
:100DEA002F54F064F0600885902F532FF080F0059F
:0B0DFA0034E534C394045003020D5094
:010E050022CA
:09113C007E007F0E7D00020B4DC8
:100E06008531238532247B007A007912AD24AC2308
:100E1600120A62AEF0C39DF538EE9CF53790000CD1
:100E26008538F0120AC590000A120A8DFFAEF090BE
:100E36000008120A8DFDACF0C39FF536EC9EF53521
:100E460090000AEC8DF0120B12900008E5378538F9
:100E5600F0120B1290000C120A8DFDACF0900004FB
:100E6600120A8DFFAEF01209C5C006C00790000237
:100E7600120A8DFFAEF0AC37AD381209C5D0E02F9F
:100E8600FDD0E03EFCC004C005900006120A8DFFAE
:100E9600AEF0AC35AD361209C5D0E02FFFD0E03E3E
:010EA600FE4D
:010EA7002228
:100B8F00120F347C007D0A1209D78E0D8F0ED3E51C
:100B9F002B950EE50D6480F8E52A648098405DC2C0
:100BAF00A6D2A5E52B950EFFE52A950DFED3EF9462
:100BBF0001EE648094804007752064E4F52C22E4F4
:100BCF00F534120F34120E068E258F260534E534B8
:100BDF00C3940A40EDE520D39464500FAE25AF26A1
:100BEF007C277D101209D78F208003752064C37472
:100BFF00649520F52C7FF27E01021131D3E52E95FD
:100C0F000EE50D6480F8E52D6480985058D2A6C289
:100C1F00A5C3E50E952EFFE50D952DFED3EF9400A0
:100C2F00EE648094804007E4F520752C6422E4F58F
:100C3F0034120F34120E068E258F260534E534C379
:100C4F00940A40EDE520C39464500FAE25AF267C87
:100C5F00277D101209D78F208003E4F520C3746419
:090C6F009520F52C22D2A6D2A595
:010C78002259
:03000B0002108E52
:10108E00C0E0C0D00511E511D395205004C2A78051
:10109E000EE511D394645004D2A780037511007528
:0A10AE008C2F758A40D0D0D0E032BC
:10101600121145758901758C2F758A40D2AFD2A9F8
:10102600D28C752032752C327B007A00791212111F
:101036003C75140075150A751600751708751800A5
:101046007519067512007513647F017E0012106E05
:0E105600120D4A120F34120FB1120B8F80EBE5
:10080000EC4D6011E8497017ED33EC3304600DE4F2
:10081000FCFFFEFD22E933E8330470F80209B01250
:10082000097B58046009E4CC248150062850090251
:1008300009BA2840030209B7C0E0EB4A7044B98006
:1008400006D0E0FB0209A6EF4E701CBD8008EBFF4E
:10085000EAFEE9FD80EBE98DF0A4FEE5F00208E98F
:10086000E9CDF9EAFEEBFFEF89F0A4FCE5F0CE89D3
:10087000F0A42EFFE435F0CD89F0A42DFEE435F090
:100880008067EF4E7005BD80D780C3EF8BF0A4ACBE
:10089000F0EE8BF0A42CFCE435F0F8EF8AF0A42CF9
:1008A000E5F038FCE433CB8DF0A42CFCE5F03BF80C
:1008B000EE8AF0A42CFCE5F038F8E433CF89F0A4FC
:1008C0002CFCE5F038CF3400CE89F0A42FFFE5F002
:1008D0003EFEE433C98DF0A42EFEE5F039CD8AF05A
:1008E000A42FFFE5F03EFEE43DFD33D0E0FB5007D2
:1008F0000BBB000F0209BAEC2CFCEF33FFEE33FE0A
:06090000ED33FD02099237
:1009060075F020800E75F010800575F0087D007E6C
:10091600007F003392D530D503120B3FEC334010E5
:10092600EF33FFEE33FEED33FDEC33FCD5F0ED2275
:0E093600E5F0247EA2D513CC92E7CDCEFF22B1
:10094400EDD2E7CD33EC3392D524814006E4FFFEAB
:10095400FDFC22FCE4CFCECDCC24E0501174FF800A
:10096400EDC3CC13CCCD13CDCE13CECF13CF0470A7
:07097400F030D5DE020B3F5D
:10097B00E9D2E7C933E833F892D5EDD2E7CD33ECC2
:07098B0033FC5002B2D5223B
:10099200EC30E7100FBF000C0EBE00080DBD0004C6
:1009A2000BEB6014A2D5EB13FCED92E7FD2274FF72
:1009B200FCFDFEFF22E480F8A2D574FF13FC7D80CB
:0309C200E480EFDF
:100EB400021016E493A3F8E493A34003F68001F22E
:100EC40008DFF48029E493A3F85407240CC8C3333F
:100ED400C4540F4420C8834004F456800146F6DF0E
:100EE400E4800B0102040810204080901115E47E78
:100EF400019360BCA3FF543F30E509541FFEE49303
:100F0400A360010ECF54C025E060A840B8E493A3C9
:100F1400FAE493A3F8E493A3C8C582C8CAC583CAF4
:100F2400F0A3C8C582C8CAC583CADFE9DEE780BEAC
:0111240000CA
:1009C500EF8DF0A4A8F0CF8CF0A428CE8DF0A42E46
:0209D500FE2200
:1009D700BC000BBE0029EF8DF084FFADF022E4CC04
:1009E700F875F008EF2FFFEE33FEEC33FCEE9DECCD
:1009F700984005FCEE9DFE0FD5F0E9E4CEFD22ED13
:100A0700F8F5F0EE8420D21CFEADF075F008EF2F5C
:100A1700FFED33FD4007985006D5F0F222C398FD4D
:050A27000FD5F0EA22EA
:100A2C00C2D5EC30E709B2D5E4C39DFDE49CFCEEE5
:100A3C0030E715B2D5E4C39FFFE49EFE1209D7C37D
:100A4C00E49DFDE49CFC80031209D730D507C3E478
:060A5C009FFFE49EFE2254
:100A6200BB010A89828A83E0F5F0A3E0225006875F
:100A7200F009E71922BBFE07E3F5F009E319228921
:0B0A8200828A83E493F5F07401932254
:100A8D00BB0110E58229F582E5833AF583E0F5F0A7
:100A9D00A3E0225009E92582F886F008E622BBFE84
:100AAD000AE92582F8E2F5F008E222E5832AF583CA
:080ABD00E993F5F0A3E993228F
:100AC500BB010DC58229C582C5833AC583020B7951
:100AD5005011C58229F808E5F026F618F5F0E582EB
:100AE50036F622BBFE11C58229F808E225F0F5F09D
:100AF500F218E23582F222F8E58229F582E5832AA9
:0D0B0500F58374019325F0F5F0E493382298
:100B1200F8BB0111E58229F582E5833AF583E8F015
:100B2200E5F0A3F0225009E92582C8F608A6F022D2
:0D0B3200BBFE09E92582C8F2E5F008F222B9
:0E0B3F00C3E49FFFE49EFEE49DFDE49CFC22C7
:100B4D00EF4E6012EF60010EEDBB010B89828A83BF
:100B5D00F0A3DFFCDEFA2289F05007F709DFFCA9CC
:0C0B6D00F022BBFEFCF309DFFCA9F02223
:100B7900C5F0F8A3E028F0C5F0F8E5821582700207
:060B89001583E038F022A4
:00000001FF
